:100000000C942A000C9434000C9434000C943400AA
:100010000C9434000C9434000C9434000C94340090
:100020000C9434000C9434000C9434000C94340080
:100030000C9434000C9434000C9434000C94340070
:100040000C9434000C9434000C9434000C94340060
:100050000C94340011241FBECFE5D8E0DEBFCDBF25
:100060000E9436000C944D000C940000B89AC49A7B
:1000700091E088B3892788BBB49908C02FE936E896
:1000800041E0215030404040E1F704C0E3ECF9E0AA
:0E0090003197F1F700C00000ECCFF894FFCFDD
:00000001FF
