:100000000C942A000C9447000C9447000C94470071
:100010000C9460010C9447000C9447000C944F0121
:100020000C9447000C9447000C9447000C94470034
:100030000C9447000C9447000C9447000C94470024
:100040000C9447000C9447000C9447000C94470014
:100050000C94470011241FBECFE5D8E0DEBFCDBF12
:1000600010E0A0E6B0E0E4E9F5E002C005900D92F2
:10007000A237B107D9F710E0A2E7B0E001C01D92A6
:10008000A03AB107E1F70E949D020C94C8020C94BB
:100090000000EBE3F0E09081986090830000908195
:1000A000807F9F70892B808398EC892F8A95F1F748
:1000B0008081877F80839A95F1F70895FF920F934F
:1000C0001F93F82E0BE310E0F80180818860808395
:1000D000000000008F2D0E9449000000F80180817F
:1000E000886080838F2D8295807F0E9449001F91B8
:1000F0000F91FF900895EAE3F0E090819C6F908368
:10010000EBE3F0E0908194609083000000000E9497
:100110005E000895EAE3F0E090819C6F9083EBE34A
:10012000F0E090819B7F9083000000000E945E00C1
:100130000895089581E00E948A0080E293E00E9481
:10014000990083E00E948A0080E293E00E94990077
:1001500008950F931F93EAE3F0E080818C6F808312
:1001600080E29EE40E94990080E29EE40E94990051
:10017000EBE3F0E08081837F808380E30E9449008D
:1001800000E61AEEC8010197F1F780E30E944900EA
:10019000C8010197F1F780E30E944900C801019767
:1001A000F1F780E20E944900C8010197F1F788E267
:1001B0000E948A0008E813E1C8010197F1F788E07E
:1001C0000E948A00C8010197F1F781E00E948A002D
:1001D000C8010197F1F786E00E948A00C8010197E3
:1001E000F1F78FE00E948A00C8010197F1F782E0E1
:1001F0000E948A00C8010197F1F71F910F9108959D
:10020000CF93DF93EC018881882331F00E947B003B
:10021000219688818823D1F7DF91CF9108956623B5
:1002200019F0613081F408C080580E948A0080E291
:1002300093E00E949900089580540E948A0080E211
:1002400093E00E9499000895EEE4F0E080818A60D6
:10025000808382EE94E09BBD8ABDE9E5F0E0808179
:1002600080618083E7E3F0E0808187608083EAE358
:10027000F0E0808182608083E8E3F0E0808181604B
:100280008083E5E4F0E080818F61808385E083BD39
:10029000E1E3F0E0808180688083789408951F9284
:1002A0000F920FB60F9211248F93809177008F5F7A
:1002B000809377008F910F900FBE0F901F9018952D
:1002C0001F920F920FB60F9211248F938091780096
:1002D0008F5F809378008F910F900FBE0F901F90CB
:1002E00018956230A9F0633018F4613029F424C005
:1002F000643021F06630B1F080E00895E82FF0E03E
:10030000EE0FFF1FEE0FFF1FE05AFF4F8081089591
:10031000E82FF0E0EE0FFF1FEE0FFF1FE25AFF4F36
:1003200080810895E82FF0E0EE0FFF1FEE0FFF1F12
:10033000E15AFF4F80810895E82FF0E0EE0FFF1F94
:10034000EE0FFF1FE35AFF4F8081089526B380B35D
:1003500090E0807390709595879595958795959584
:10036000879530E02870307035952795359527951D
:1003700035952795822B0895823051F1833030F4E2
:10038000882351F0813009F04CC014C0833071F1E2
:10039000843009F046C038C0E5E3F0E080818F7B0F
:1003A000808380818F778083E8E3F0E080818B7F9A
:1003B00080830895E5E3F0E080818F7B80838081F6
:1003C0008F778083E8E3F0E0808184608083089504
:1003D000E5E3F0E080818F7B80838081806880838B
:1003E000E8E3F0E080818B7F80830895E5E3F0E02F
:1003F00080818F7B8083808180688083E8E3F0E068
:100400008081846080830895E5E3F0E080818064EA
:10041000808380818F778083E8E3F0E080818B7F29
:1004200080830895809179008E31C1F18F3140F43D
:10043000843009F478C0843139F1882351F078C0D0
:100440008233F1F18C3309F44AC0833209F070C071
:100450005AC080917600853019F481E0809376004F
:10046000809176000E94BC010E94A601873021F095
:1004700084E1809379005EC01092790080917600CB
:100480008F5F8093760056C00E94A60180937B0008
:100490008EE180937900109277004CC080917700B4
:1004A0008E3151F40E94A60190917B00891721F4AE
:1004B00082E3809379003EC08EE1809379003AC058
:1004C0008CE3809379008091760060917B000E949C
:1004D000710180939F0081E080937A002BC0E8E354
:1004E000F0E0808191E0892780830E94A601873017
:1004F00031F083E280937900109277001BC084E092
:100500008093790017C080917700843641F40E946F
:10051000A601873021F484E0809379000BC083E248
:100520008093790007C01092790081E08093760073
:100530001092790080917A0008950E9424010E940F
:10054000A90081E0809376000E9412028823E1F3E3
:1005500010927A0080919F000E947B00F5CFEFE41B
:10056000F0E010829AE09EBD22EE34E03BBD2ABD51
:100570001082813031F4E9E5F0E080818061808390
:1005800005C0E9E5F0E080818F7E8083789408954E
:04059000F894FFCF0D
:1005940010464544433336394232353830313437E6
:0205A400410014
:00000001FF
