:100000000C942A000C9447000C9447000C94470071
:100010000C9447000C9447000C9447000C94470044
:100020000C9447000C9447000C9447000C94470034
:100030000C9447000C9447000C9447000C94470024
:100040000C9447000C9447000C9447000C94470014
:100050000C94470011241FBECFE5D8E0DEBFCDBF12
:1000600010E0A0E6B0E0EEE3F3E002C005900D92F0
:10007000A237B107D9F710E0A2E7B0E001C01D92A6
:10008000A839B107E1F70E94C4000C949D010C94BB
:10009000000083B3E0E5F3EC3197F1F793B3907C84
:1000A000807C9817D9F5903479F09038B9F0E091C8
:1000B00076009923F1F4F0E0EE0FFF1FEE0FFF1F23
:1000C000E05AFF4F83811DC0E0917600F0E0EE0F13
:1000D000FF1FEE0FFF1FEE59FF4F12C0E091760099
:1000E000F0E0EE0FFF1FEE0FFF1FE05AFF4F818180
:1000F00008C0F0E0EE0FFF1FEE0FFF1FE05AFF4FAA
:100100008081B299FECF0E94E80088EE93E02AEF4A
:1001100030E0F9013197F1F70197D9F7089580910F
:10012000760020E030E020C02130310559F0223047
:10013000310571F02115310589F48BB38C7F8BBBB0
:1001400083E010C08BB38C7F8BBBD89A82E00AC04F
:100150008BB38C7F8BBBD99A81E004C08BB3836057
:100160008BBB80E02F5F3F4FB29BDECF809376004A
:100170000E94490008958AB383608ABB84B38F7359
:1001800084BB0E94FA0008950E94BB000E948F0069
:10019000FDCFDB9A00009BB3807F9F70982B9BBBA9
:1001A00088EC982F9A95F1F7DB988A95F1F70895E6
:1001B0001F93182FDB9A000000000E94C900000066
:1001C000DB9A812F8295807F0E94C9001F9108953C
:1001D0009AB39C6F9ABBDA9A000000000E94D80084
:1001E00008959AB39C6F9ABBDA98000000000E94B1
:1001F000D80008950F931F938AB38C6F8ABB8BB37B
:10020000837F8BBB80E30E94C90000E61AEEC80121
:100210000197F1F780E30E94C900C8010197F1F747
:1002200080E30E94C900C8010197F1F780E20E94B3
:10023000C900C8010197F1F788E20E94F10008E8BF
:1002400013E1C8010197F1F788E00E94F100C801AD
:100250000197F1F781E00E94F100C8010197F1F7E1
:1002600086E00E94F100C8010197F1F78FE00E943B
:10027000F100C8010197F1F782E00E94F100C80186
:100280000197F1F71F910F91089581E00E94F1000D
:1002900083E00E94F1000895CF93DF93EC0103C047
:1002A0000E94E800219688818823D1F7DF91CF91C1
:1002B00008950895613049F0613028F0623039F0D6
:1002C000633061F408C0805803C0805401C08C566C
:1002D0000E94F10008958C520E94F1000895CF927F
:1002E000DF92EF92FF920F931F93CF93DF93182F1C
:1002F000062F0E945A01C0E0D0E0E12EFF2484ECDA
:10030000C82E89E0D82E07C080E20E94E800C6010E
:100310000197F1F72196CE018E0D9F1D4497A4F30E
:10032000812F602F0E945A01DF91CF911F910F9171
:0E033000FF90EF90DF90CF900895F894FFCFEC
:10033E00313233463435364537383944413042430D
:02034E0010009D
:00000001FF
