:100000000C942A000C9447000C9447000C94470071
:100010000C9447000C9447000C9447000C94470044
:100020000C9447000C9447000C9447000C94470034
:100030000C9447000C949A000C9447000C944700D1
:100040000C9447000C9447000C9447000C94470014
:100050000C94470011241FBECFE5D8E0DEBFCDBF12
:1000600010E0A0E6B0E0E2EFFAE002C005900D92E9
:10007000A637B107D9F710E0A6E7B0E001C01D929E
:10008000A63BB107E1F70E9487000C9477050C941A
:100090000000B89AC09A8BB7806C8BBF85B7876019
:1000A00085BF87B387BB88B388BB83B7826083BFB4
:1000B000789408952AB128692AB920B5266820BD08
:1000C000599A292F332727FD3A9520BD89B90895DC
:1000D0005D9BFECF8CB908955F9BFECF81E080933E
:1000E00078008CB10895EF92FF92CF93DF93E82EC2
:1000F000E7017E01F92EE70102C00E9468008991A4
:100100008823D9F7DF91CF91FF90EF9008950E9457
:1001100017020E9449000E94640180E490E00E945E
:100120005A00809177008130E1F70E946C001092B4
:100130007700F7CF1F920F920FB60F9211242F93D3
:100140003F934F935F936F937F938F939F93AF935F
:10015000BF93EF93FF932CB120937600E091790049
:10016000F0917A00EB57FF4F208380917B009091B4
:100170007C008E3091050CF047C000D000D000D03C
:10018000EDB7FEB7319683E890E0ADB7BEB71296F3
:100190009C938E93119780E690E0938382832483CF
:1001A00015820E949602E0917900F0917A00EB5757
:1001B000FF4F8091840080838091790090917A0034
:1001C000019790937A0080937900E0917900F09103
:1001D0007A00EB57FF4F80918300808310927E005E
:1001E00010927D008091790090917A000197909310
:1001F0007A0080937900C0988DB79EB706960FB6A7
:10020000F8949EBF0FBE8DBF8091790090917A00C7
:100210008730910551F481E0809377008DE090E084
:1002200090937A008093790009C080917B0090912F
:100230007C00019690937C0080937B0085E890E0A1
:100240000E94CC01FF91EF91BF91AF919F918F914F
:100250007F916F915F914F913F912F910F900FBEC2
:100260000F901F901895DB9A00009BB3807F9F70C2
:10027000892B8BBB88EC8A95F1F7DB9888EC8A9503
:10028000F1F708951F93182FDB9A000000000E94D9
:1002900033010000DB9A812F8295807F0E94330119
:1002A0001F9108959AB39C6F9ABBDA9A00000000E0
:1002B0000E94420108959AB39C6F9ABBDA9800009D
:1002C00000000E94420108958AB38C6F8ABB8BB3F1
:1002D000837F8BBB80E30E9433018FE59AEE019709
:1002E000F1F700C0000080E30E9433018FE59AEE31
:1002F0000197F1F700C0000080E30E9433018FE511
:100300009AEE0197F1F700C0000080E20E943301ED
:100310008FE59AEE0197F1F700C0000088E20E9495
:100320005B0187E893E10197F1F700C0000088E0E6
:100330000E945B0187E893E10197F1F700C000009C
:1003400081E00E945B0187E893E10197F1F700C02B
:10035000000086E00E945B0187E893E10197F1F7D6
:1003600000C000008FE00E945B0187E893E10197E5
:10037000F1F700C0000082E00E945B0187E893E192
:100380000197F1F700C00000089581E00E945B0131
:1003900083E00E945B010895EF92FF92CF93DF9379
:1003A000E82EE7017E01F92EE70102C00E9452010A
:1003B00089918823D9F7DF91CF91FF90EF9008952D
:1003C0000895613049F0613028F0623039F06330CF
:1003D00061F408C0805803C0805401C08C560E944C
:1003E0005B0108958C520E945B0108950F931F9347
:1003F000CF93DF93182F062F0E94E101C12FD0E089
:100400000AC080E20E94520183EC99E00197F1F763
:1004100000C000002196C431D1059CF3812F602FCC
:100420000E94E101DF91CF911F910F9108958AB34E
:1004300083608ABB84B38F7384BB0E946401089578
:1004400093B3AFE4B3EC1197F1F700C0000083B3AE
:10045000807C907C8917E1F5803479F08038C1F098
:10046000E091B5008823F9F4F0E0EE0FFF1FEE0FE6
:10047000FF1FEA59FF4F83811EC0E091B500F0E0F5
:10048000EE0FFF1FEE0FFF1FEA59FF4F828113C0CF
:10049000E091B500F0E0EE0FFF1FEE0FFF1FEA59ED
:1004A000FF4F818108C0F0E0EE0FFF1FEE0FFF1F2E
:1004B000EA59FF4F8081B299FECF0E9452018FE32B
:1004C0009DE0A3E081509040A040E1F700C0000013
:1004D000089580E090E052E041E033E022C08130B6
:1004E000910559F08230910579F00097A1F42BB372
:1004F0002C7F2BBB3093B50013C02BB32C7F2BBBB1
:10050000D89A5093B5000CC02BB32C7F2BBBD99A33
:100510004093B50005C02BB323602BBB1092B500F0
:100520000196B29BDCCF0E9420020895AEE0B0E0BD
:10053000ECE9F2E00C944E050D891E8986E08C836F
:100540001A8309838FEF9FE79E838D839E01275E29
:100550003F4FCE0101966F89788DA9010E94B902A3
:10056000EF81F885E00FF11F10822E96E4E00C94E5
:100570006A05ACE0B0E0EFEBF2E00C9440056C01F2
:100580001B018A01FC0117821682838181FFD1C180
:100590002E010894411C511CF6019381F10193FD39
:1005A000859193FF81911F01882309F4BEC1853293
:1005B00039F493FD859193FF81911F01853229F4D0
:1005C00090E0B6010E94B604E7CFEE24FF2420E0BD
:1005D0002032B0F48B3269F08C3228F4803251F042
:1005E000833271F40BC08D3239F0803349F42160CD
:1005F0002CC02260246029C0286027C0206125C04B
:1006000027FD2CC0382F30533A3098F426FF08C00D
:100610008E2D880FE82EEE0CEE0CE80EE30E15C0C2
:100620008F2D880FF82EFF0CFF0CF80EF30E2062B2
:100630000CC08E3221F426FD78C1206406C08C36B1
:1006400011F4206802C0883649F4F10193FD8591C8
:1006500093FF81911F01882309F0BACF982F9554F9
:10066000933018F09052933028F40C5F1F4FFFE343
:10067000F9830DC0833631F0833771F0833509F08B
:1006800060C022C0F801808189830E5F1F4F420144
:1006900071E0A72EB12C16C062E0662E712C600EA0
:1006A000711EF8018080918026FF03C06E2D70E0DE
:1006B00002C06FEF7FEFC4012C870E94AB045C0186
:1006C00083012C852F7717C052E0652E712C600EA8
:1006D000711EF8018080918026FF03C06E2D70E0AE
:1006E00002C06FEF7FEFC4012C870E94A0045C0161
:1006F0002C852068830123FD20C008C080E290E0A3
:10070000B6012C870E94B604FA942C858F2D90E0B8
:10071000A816B90698F311C0F40127FD859127FFAB
:1007200081914F0190E0B6012C870E94B6042C8580
:10073000F110FA940894A108B108A114B10461F76A
:10074000F1C0843611F0893649F527FF08C0F80159
:1007500060817181828193810C5F1F4F09C0F80114
:1007600060817181882777FD8095982F0E5F1F4FDC
:100770004FE6B42EB22297FF09C0909580957095F0
:1007800061957F4F8F4F9F4FF0E8BF2AA2012AE06B
:1007900030E00E94E204782E741845C0853731F4A9
:1007A0003FEEB32EB2222AE030E025C099EFB92EF9
:1007B000B2228F36C1F0803720F4883509F0B5C0F9
:1007C0000DC0803721F0883709F0AFC002C020E1AA
:1007D000B22AB4FE0BC084E0B82A08C0B4FE09C037
:1007E000E6E0BE2A06C028E030E005C020E130E0A7
:1007F00002C020E132E0B7FE08C0F80160817181DB
:10080000828193810C5F1F4F07C0F8016081718165
:1008100080E090E00E5F1F4FA2010E94E204782E5C
:100820007418FFE7BF22B6FE0BC02EEFB2227E1473
:1008300038F4B4FE07C0B2FC05C08FEEB82202C087
:10084000A72C01C0AE2C8B2D90E0B4FE0DC0FE0194
:10085000E70DF11D2081203319F4E9EEBE2209C015
:10086000A394B2FE06C004C086789070009709F089
:10087000A3948B2C9924B3FC14C0B0FE0FC0AF140A
:1008800028F4E72CEF0CEA18AF2C08C0E72C06C0C0
:1008900080E290E0B6010E94B604A394AF14C0F3C6
:1008A00004C0AF1410F4FA1801C0FF2484FE0FC076
:1008B00080E390E0B6010E94B60482FE1FC081FE74
:1008C00003C088E590E010C088E790E00DC0C40147
:1008D00086789070009791F081FC02C080E201C0A0
:1008E0008BE2B7FC8DE290E0B6010E94B60406C030
:1008F00080E390E0B6010E94B604EA947E14C0F34F
:100900007A94F201E70DF11D808190E0B6010E941A
:10091000B6047720A9F706C080E290E0B6010E94F5
:10092000B604FA94FF20C1F737CEF601268137814D
:1009300002C02FEF3FEFC9012C96E2E10C945C0559
:10094000FC010590615070400110D8F7809590959A
:100950008E0F9F1F0895FC0161507040019001109F
:10096000D8F7809590958E0F9F1F08950F931F9332
:10097000CF93DF938C01EB018B8181FF1BC082FF42
:100980000DC02E813F818C819D812817390764F429
:10099000E881F9810193F983E88306C0E885F98548
:1009A000802F0995009731F48E819F8101969F8356
:1009B0008E8302C00FEF1FEFC801DF91CF911F910F
:1009C0000F910895FA01AA27283051F1203181F1C1
:1009D000E8946F936E7F6E5F7F4F8F4F9F4FAF4F47
:1009E000B1E03ED0B4E03CD0670F781F891F9A1F5A
:1009F000A11D680F791F8A1F911DA11D6A0F711D0E
:100A0000811D911DA11D20D009F468943F912AE019
:100A1000269F11243019305D3193DEF6CF01089501
:100A2000462F4770405D4193B3E00FD0C9F7F6CF32
:100A3000462F4F70405D4A3318F0495D31FD4052FA
:100A4000419302D0A9F7EACFB4E0A6959795879590
:100A500077956795BA95C9F700976105710508956F
:100A60009B01AC010A2E069457954795379527951B
:100A7000BA95C9F7620F731F841F951FA01D0895B3
:100A80002F923F924F925F926F927F928F929F929E
:100A9000AF92BF92CF92DF92EF92FF920F931F938C
:100AA000CF93DF93CDB7DEB7CA1BDB0B0FB6F8943D
:100AB000DEBF0FBECDBF09942A88398848885F847D
:100AC0006E847D848C849B84AA84B984C884DF80EE
:100AD000EE80FD800C811B81AA81B981CE0FD11DD2
:100AE0000FB6F894DEBF0FBECDBFED010895F894A8
:020AF000FFCF36
:100AF20025303258001031323346343536453738D6
:060B02003944413042437A
:00000001FF
