:100000000C942A000C9434000C9434000C943400AA
:100010000C9434000C9434000C9434000C94340090
:100020000C9434000C9434000C9434000C94340080
:100030000C9434000C9434000C9434000C94340070
:100040000C9434000C9434000C9434000C94340060
:100050000C94340011241FBECFE5D8E0DEBFCDBF25
:100060000E94D1000C94D9000C940000DB9A00008F
:100070009BB3807F9F70892B8BBB88EC8A95F1F7AF
:10008000DB9888EC8A95F1F708951F93182FDB9A77
:10009000000000000E9436000000DB9A812F82954C
:1000A000807F0E9436001F9108959AB39C7F9ABB6F
:1000B000DA9A000000000E94450008959AB39C7FE0
:1000C0009ABBDA98000000000E94450008958AB3A8
:1000D0008C6F8ABB8FEF98E0ADE381509040A040D9
:1000E000E1F700C000008BB3837F8BBB80E20E94EE
:1000F0003600AFE5BAEE1197F1F700C0000080E2DC
:100100000E9436008FE59AEE0197F1F700C00000DB
:1001100080E20E943600AFE5BAEE1197F1F700C019
:10012000000080E20E9436008FE59AEE0197F1F719
:1001300000C0000088E20E945E00A7E8B3E11197CA
:10014000F1F700C0000088E00E945E0087E893E1BC
:100150000197F1F700C0000081E00E945E00A7E86F
:10016000B3E11197F1F700C0000086E00E945E0045
:1001700087E893E10197F1F700C000008FE00E944B
:100180005E00A7E8B3E11197F1F700C0000082E03C
:100190000E945E0087E893E10197F1F700C000003C
:1001A000089582E00E945E008CE00E945E00FFCF16
:0601B0000895F894FFCF52
:00000001FF
