:100000000C942A000C9434000C9434000C943400AA
:100010000C9434000C9434000C9434000C94340090
:100020000C9434000C9434000C9434000C94340080
:100030000C9434000C9434000C9434000C94340070
:100040000C9434000C9434000C9434000C94340060
:100050000C94340011241FBECFE5D8E0DEBFCDBF25
:100060000E9436000C9442000C94000081E087BB93
:1000700088BB28EA31E6B199FECFC9010197F1F7B3
:0800800018BAF9CFF894FFCF84
:00000001FF
