:100000000C942A000C942D040C9462040C94470068
:100010000C9447000C9447000C9447000C94470044
:100020000C9447000C9447000C9447000C947D04FA
:100030000C9447000C9463000C9447000C94470008
:100040000C9447000C9447000C9447000C94470014
:100050000C94470011241FBECFE5D8E0DEBFCDBF12
:1000600011E0A0E6B0E0EAEFFFE002C005900D92DB
:10007000A038B107D9F711E0A0E8B1E001C01D92A6
:10008000AF3FB107E1F70E9449000C94FB070C94C5
:1000900000000E94F5030E94190180E490E00E9494
:1000A00000030E942B030E949301809160009091B5
:1000B0006100009739F00E941D02109261001092B9
:1000C0006000F3CFFFCF1F920F920FB60F92112453
:1000D0002F933F934F935F936F937F938F939F9350
:1000E000AF93BF93EF93FF930E949502882369F02B
:1000F0000E94C7008FE39DE0A3E081509040A040A4
:10010000E1F700C000000E94D503FF91EF91BF917D
:10011000AF919F918F917F916F915F914F913F919F
:100120002F910F900FBE0F901F901895DB9A000033
:100130009BB3807F9F70892B8BBB88EC8A95F1F7EE
:10014000DB9888EC8A95F1F708951F93182FDB9AB6
:10015000000000000E9496000000DB9A812F82952B
:10016000807F0E9496001F9108959AB39C6F9ABB5E
:10017000DA9A000000000E94A50008959AB39C6FCF
:100180009ABBDA98000000000E94A500089581E063
:100190000E94BE0083E00E94BE000895EF92FF928D
:1001A000CF93DF93E82EE7017E01F92EE70102C02D
:1001B0000E94B50089918823D9F7DF91CF91FF90F4
:1001C000EF9008950895613049F0613028F0623071
:1001D00039F0633061F408C0805803C0805401C016
:1001E0008C560E94BE0008958C520E94BE00089555
:1001F0000F931F93CF93DF93182F062F0E94E300D6
:10020000C12FD0E00AC080E20E94B50083EC99E0E3
:100210000197F1F700C000002196C431D1059CF38D
:10022000812F602F0E94E300DF91CF911F910F91EA
:1002300008958AB38C6F8ABB8BB3837F8BBB80E3BB
:100240000E9496008FE59AEE0197F1F700C000003A
:1002500080E30E949600AFE5BAEE1197F1F700C077
:10026000000080E30E9496008FE59AEE0197F1F777
:1002700000C0000080E20E949600AFE5BAEE119740
:10028000F1F700C0000088E20E94BE0087E893E119
:100290000197F1F700C0000088E00E94BE00A7E8C7
:1002A000B3E11197F1F700C0000081E00E94BE00A9
:1002B00087E893E10197F1F700C0000086E00E9413
:1002C000BE00A7E8B3E11197F1F700C000008FE08E
:1002D0000E94BE0087E893E10197F1F700C000009B
:1002E00082E00E94BE00A7E8B3E11197F1F700C0D9
:1002F000000082E690E00E94CE008FE392E4AFE03F
:1003000081509040A040E1F700C0000080E061E033
:100310000E94E30086E790E00E94CE0080E062E069
:100320000E94E30008958AB383608ABB84B3807C13
:1003300084BB0E941901089593B3AFE4B3EC119705
:10034000F1F700C0000083B3807C907C891709F02E
:1003500044C0803479F08038C1F0E091B70188233F
:10036000F9F4F0E0EE0FFF1FEE0FFF1FE551FF4F16
:1003700083811EC0E091B701F0E0EE0FFF1FEE0F8A
:10038000FF1FE551FF4F828113C0E091B701F0E0FC
:10039000EE0FFF1FEE0FFF1FE551FF4F818108C0D9
:1003A000F0E0EE0FFF1FEE0FFF1FE551FF4F8081C2
:1003B0008093B6018091B601833469F481E00E9494
:1003C000BE0009C08FE19FEBA2E081509040A040A9
:1003D000E1F700C00000B299F5CF089580E090E009
:1003E00052E041E033E022C08130910559F0823083
:1003F000910579F00097A1F42BB32C7F2BBB3093A0
:10040000B70113C02BB32C7F2BBBD89A5093B701E5
:100410000CC02BB32C7F2BBBD99A4093B70105C0DE
:100420002BB323602BBB1092B7010196B29BDCCF9C
:100430000E949C018091B60108950F931F93CF9362
:10044000DF930DEA11E0C0E0D0E00E94EE01D80198
:100450008D938D018C2F61E00E94E30086E890E08F
:100460000E94CE008C2F61E00E94E3008AE20E948D
:10047000B5008FEB97E2A9E081509040A040E1F7F2
:1004800000C000002196C430D105F9F68091AD017D
:10049000823351F58091AE01853331F58091AF0102
:1004A000803311F58091B0018233F1F48FE39DE048
:1004B000A3E081509040A040E1F700C000000E94FE
:1004C000C7008FE39DE0A3E081509040A040E1F79A
:1004D00000C000000E94060480918B010E9440032E
:1004E00081E08093B5011CC080E063E00E94E300DE
:1004F00081E990E00E94CE008FE794E8AEE1815060
:100500009040A040E1F700C000000E94C7008BE9C6
:1005100090E00E94CE000E941D021092B50180E082
:10052000DF91CF911F910F9108958091B5010895AA
:10053000CF93DF9388E48093B1018BE48093B20181
:1005400084E58093B30182E48093B40117C0C33083
:10055000D10594F421960E94C7008CEA90E00E9495
:10056000CE0080E061E00E94E300FE01EF54FE4F08
:1005700080810E94B50010C00E94C7008CEA90E004
:100580000E94CE0080E061E00E94E3008091B10112
:100590000E94B500C0E0D0E00E94EE018634B9F2BE
:1005A00026C00E94C70085EC90E00E94CE008881A2
:1005B0000E94B50080E062E00E94E30089ED90E0D7
:1005C0000E94CE000E94EE01813331F40E94140596
:1005D0000E94C7000E9498020E94EE01823349F4F3
:1005E0000E9417050E94C7000E94980202C0CF54C3
:1005F000DE4F0E94EE018534A1F2DF91CF91089584
:100600002AB128692AB920B5266820BD22E02BB975
:10061000292F332727FD3A9520BD89B908955D9B81
:10062000FECF8CB908955F9BFECF8CB10895EF92F9
:10063000FF92CF93DF93E82EE7017E01F92EE701C9
:1006400002C00E940F0389918823D9F7DF91CF91CF
:10065000FF90EF90089587B3806B87BB8DB1816564
:100660008DB988B3806D88BB0895779BFECFC49AFF
:100670008FB10895C4988FB9779BFECFC49A08951F
:10068000EF92FF920F931F93DF93CF93CDB7DEB717
:10069000C456D0400FB6F894DEBF0FBECDBF2DB705
:1006A0003EB72A5030400FB6F8943EBF0FBE2DBF64
:1006B000EDB7FEB731967E010894E11CF11CADB791
:1006C000BEB71296FC92EE9211972BEF30E0338377
:1006D000228390915E019483158290915F019683AD
:1006E0001782808711860E941A050F900F900F9035
:1006F0000F90EDB7FEB731968E010D5C1F4FADB771
:10070000BEB712961C930E9311978CE091E09383E1
:100710008283F582E4820E941A052DB73EB72A5FD4
:100720003F4F0FB6F8943EBF0FBE2DBFC8010E94C9
:10073000170383E191E00E94CE008FE794E8AEE1D9
:1007400081509040A040E1F700C000000E94C70027
:1007500083E291E00E94CE008FE39DE0A3E0815010
:100760009040A040E1F700C00000CC59DF4F0FB629
:10077000F894DEBF0FBECDBFCF91DF911F910F91D7
:10078000FF90EF90089540E00BC0242F30E0FC0173
:10079000E20FF31F26543E4FD9012C9120834F5F67
:1007A0002091ED01421788F30895809160019091A6
:1007B00061010097C9F080E061E00E94E30089E4F4
:1007C00091E00E94CE008FE794E8AEE18150904026
:1007D000A040E1F700C000000E94C7001092610134
:1007E000109260010E9498020895B89AC09A8BB73F
:1007F000806C8BBF85B7876085BF87B387BB88B3A5
:1008000088BB83B7826083BF789408958091850107
:10081000813011F51092850180EF91E00E9417035D
:100820008FEB96ECADE281509040A040E1F700C024
:1008300000000E94C70082E691E00E94CE008FE394
:100840009DE0A3E081509040A040E1F700C000008F
:1008500080EF91E00E94CE0008951F920F920FB694
:100860000F9211242F933F934F935F936F937F9336
:100870008F939F93AF93BF93EF93FF930E94C70013
:100880008FE39DE0A3E081509040A040E1F700C0DD
:1008900000008CE691E00E94CE0085E50E943A03BC
:1008A000949AFF91EF91BF91AF919F918F917F911A
:1008B0006F915F914F913F912F910F900FBE0F90CD
:1008C0001F9018951F920F920FB60F9211248F93BD
:1008D00089B7816089BF80918601813029F489B709
:1008E0008E7F89BF1092860181E0809386018F916F
:1008F0000F900FBE0F901F9018951F920F920FB67A
:100900000F9211242F933F934F935F936F937F9395
:100910008F939F93AF93BF93EF93FF9385EF0E94C5
:100920003A032FB12093840180918701909188012F
:100930008E3091050CF049C0263809F446C000D02D
:1009400000D000D0EDB7FEB731968EEE91E0ADB796
:10095000BEB712969C938E93119788E791E093838C
:100960008283248315820E941A05E0917D01F09113
:100970007E01E051FE4F8091EF01808380917D01E7
:1009800090917E01019790937E0180937D01E0918B
:100990007D01F0917E01E051FE4F8091EE01808358
:1009A00010928A011092890180917D0190917E01BF
:1009B000019790937E0180937D018DB79EB7069637
:1009C0000FB6F8949EBF0FBE8DBF809187019091A6
:1009D00088018730910571F481E080938501109240
:1009E0008801109287018DE090E090937E018093C2
:1009F0007D0109C0809187019091880101969093B3
:100A0000880180938701FF91EF91BF91AF919F91F2
:100A10008F917F916F915F914F913F912F910F90A7
:100A20000FBE0F901F9018958C9A949A089512BA41
:100A300011BA0895AEE0B0E0E0E2F5E00C94D20720
:100A40000D891E8986E08C831A8309838FEF9FE7C7
:100A50009E838D839E01275E3F4FCE0101966F8955
:100A6000788DA9010E943D05EF81F885E00FF11F07
:100A700010822E96E4E00C94EE07ACE0B0E0E3E4E4
:100A8000F5E00C94C4076C011B018A01FC0117827C
:100A90001682838181FFD1C12E010894411C511C13
:100AA000F6019381F10193FD859193FF81911F01DF
:100AB000882309F4BEC1853239F493FD859193FFF3
:100AC00081911F01853229F490E0B6010E943A0716
:100AD000E7CFEE24FF2420E02032B0F48B3269F01F
:100AE0008C3228F4803251F0833271F40BC08D3295
:100AF00039F0803349F421602CC02260246029C081
:100B0000286027C0206125C027FD2CC0382F305316
:100B10003A3098F426FF08C08E2D880FE82EEE0C90
:100B2000EE0CE80EE30E15C08F2D880FF82EFF0C8B
:100B3000FF0CF80EF30E20620CC08E3221F426FD5D
:100B400078C1206406C08C3611F4206802C0883653
:100B500049F4F10193FD859193FF81911F01882351
:100B600009F0BACF982F9554933018F090529330E3
:100B700028F40C5F1F4FFFE3F9830DC0833631F07B
:100B8000833771F0833509F060C022C0F80180819D
:100B900089830E5F1F4F420171E0A72EB12C16C052
:100BA00062E0662E712C600E711EF80180809180CB
:100BB00026FF03C06E2D70E002C06FEF7FEFC4010F
:100BC0002C870E942F075C0183012C852F7717C08B
:100BD00052E0652E712C600E711EF80180809180AC
:100BE00026FF03C06E2D70E002C06FEF7FEFC401DF
:100BF0002C870E9424075C012C852068830123FD3B
:100C000020C008C080E290E0B6012C870E943A071D
:100C1000FA942C858F2D90E0A816B90698F311C090
:100C2000F40127FD859127FF81914F0190E0B601E6
:100C30002C870E943A072C85F110FA940894A10899
:100C4000B108A114B10461F7F1C0843611F08936FE
:100C500049F527FF08C0F801608171818281938185
:100C60000C5F1F4F09C0F80160817181882777FDF3
:100C70008095982F0E5F1F4F4FE6B42EB22297FF3C
:100C800009C090958095709561957F4F8F4F9F4FCC
:100C9000F0E8BF2AA2012AE030E00E946607782E21
:100CA000741845C0853731F43FEEB32EB2222AE0E6
:100CB00030E025C099EFB92EB2228F36C1F08037CF
:100CC00020F4883509F0B5C00DC0803721F0883791
:100CD00009F0AFC002C020E1B22AB4FE0BC084E02C
:100CE000B82A08C0B4FE09C0E6E0BE2A06C028E063
:100CF00030E005C020E130E002C020E132E0B7FE84
:100D000008C0F80160817181828193810C5F1F4F5F
:100D100007C0F8016081718180E090E00E5F1F4F95
:100D2000A2010E946607782E7418FFE7BF22B6FE64
:100D30000BC02EEFB2227E1438F4B4FE07C0B2FC12
:100D400005C08FEEB82202C0A72C01C0AE2C8B2D9F
:100D500090E0B4FE0DC0FE01E70DF11D20812033AF
:100D600019F4E9EEBE2209C0A394B2FE06C004C085
:100D700086789070009709F0A3948B2C9924B3FC8B
:100D800014C0B0FE0FC0AF1428F4E72CEF0CEA1823
:100D9000AF2C08C0E72C06C080E290E0B6010E94AC
:100DA0003A07A394AF14C0F304C0AF1410F4FA18B8
:100DB00001C0FF2484FE0FC080E390E0B6010E94D2
:100DC0003A0782FE1FC081FE03C088E590E010C094
:100DD00088E790E00DC0C40186789070009791F08C
:100DE00081FC02C080E201C08BE2B7FC8DE290E0A2
:100DF000B6010E943A0706C080E390E0B6010E9467
:100E00003A07EA947E14C0F37A94F201E70DF11DDB
:100E1000808190E0B6010E943A077720A9F706C0CA
:100E200080E290E0B6010E943A07FA94FF20C1F7F1
:100E300037CEF6012681378102C02FEF3FEFC9017F
:100E40002C96E2E10C94E007FC01059061507040A3
:100E50000110D8F7809590958E0F9F1F0895FC0183
:100E60006150704001900110D8F7809590958E0FD9
:100E70009F1F08950F931F93CF93DF938C01EB0176
:100E80008B8181FF1BC082FF0DC02E813F818C8131
:100E90009D812817390764F4E881F9810193F9836A
:100EA000E88306C0E885F985802F0995009731F41D
:100EB0008E819F8101969F838E8302C00FEF1FEF6B
:100EC000C801DF91CF911F910F910895FA01AA27D0
:100ED000283051F1203181F1E8946F936E7F6E5F7D
:100EE0007F4F8F4F9F4FAF4FB1E03ED0B4E03CD02B
:100EF000670F781F891F9A1FA11D680F791F8A1F0E
:100F0000911DA11D6A0F711D811D911DA11D20D074
:100F100009F468943F912AE0269F11243019305D2E
:100F20003193DEF6CF010895462F4770405D41931F
:100F3000B3E00FD0C9F7F6CF462F4F70405D4A336C
:100F400018F0495D31FD4052419302D0A9F7EACF34
:100F5000B4E0A6959795879577956795BA95C9F763
:100F600000976105710508959B01AC010A2E069456
:100F70005795479537952795BA95C9F7620F731F0F
:100F8000841F951FA01D08952F923F924F925F924C
:100F90006F927F928F929F92AF92BF92CF92DF9289
:100FA000EF92FF920F931F93CF93DF93CDB7DEB7EE
:100FB000CA1BDB0B0FB6F894DEBF0FBECDBF099482
:100FC0002A88398848885F846E847D848C849B84D9
:100FD000AA84B984C884DF80EE80FD800C811B81E7
:100FE000AA81B981CE0FD11D0FB6F894DEBF0FBE16
:0A0FF000CDBFED010895F894FFCF86
:100FFA0001003D3D57656C436F6D6520546F204875
:10100A004143533D3D0020202020537769706520DD
:10101A0063617264001020202020202020202020DC
:10102A000074727920616761696E00202020202097
:10103A00456E7465722050494E203A0020202020C7
:10104A002020203D3D3D43686F6F736520526F6FCE
:10105A006D3D3D3D0020202020202043686F7365B0
:10106A006E20526F6F6D3A20002020312E4F4E2095
:10107A002020202020322E4F46460031323346347B
:10108A0035364537383944413042432530326425B4
:10109A0030326425303264303030300025732530E8
:1010AA00326400202020207061636B6574207365B0
:1010BA006E74002020202020205761697420666FFA
:1010CA007220536572766572202020202020546F8A
:1010DA0020526573706F6E6400203D3D4163636505
:1010EA007373204772616E7465643D3D20000C2263
:1010FA000100596F7572204944203A00456E7465A3
:10110A00722050494E203A0025303258000D000016
:00000001FF
