:100000000C942A000C9434000C9434000C943400AA
:100010000C9434000C9434000C9434000C94340090
:100020000C9434000C9434000C9434000C94340080
:100030000C9434000C9434000C9434000C94340070
:100040000C9434000C9434000C9434000C94340060
:100050000C94340011241FBECFE5D8E0DEBFCDBF25
:100060000E946F000C94B7000C940000DB9A000013
:1000700000008BB3807F8BBB08951ABADF9A8BB3D5
:10008000887F8BBB02C00E943600DF99FCCF8FEFC8
:100090008ABB0895DF93CF930F92CDB7DEB78983E4
:1000A0000E943D0089818BBBDA980E9436001BBA02
:1000B0000F90CF91DF910895DF93CF930F92CDB73B
:1000C000DEB789830E943D0089818BBBDF98DA9A75
:1000D0000E9436001BBA0F90CF91DF9108958AB32A
:1000E0008C608ABB85EA9EE00197F1F700C00000B2
:1000F00088E30E944A0090E19A95F1F700C08EE0F3
:100100000E944A0080E18A95F1F700C085E60E94CE
:100110005C0087E70E945C0082E60E945C0089E642
:100120000E945C0085E60E945C0088E40E945C00FE
:1001300081E60E945C0083E60E945C008BE60E94E0
:100140005C008EE20E945C0083E60E945C008FE609
:100150000E945C008DE60E945C0081E00E944A00E3
:1001600083EF91E00197F1F700C00000FFCFF89412
:02017000FFCFBF
:00000001FF
