:100000000C942A000C943C000C9457000C943C0077
:100010000C943C000C943C000C943C000C943C0070
:100020000C943C000C943C000C943C000C943C0060
:100030000C943C000C943C000C943C000C943C0050
:100040000C943C000C943C000C943C000C943C0040
:100050000C943C0011241FBECFE5D8E0DEBFCDBF1D
:1000600010E0A0E6B0E001C01D92A336B107E1F7B1
:100070000E9448000C9471000C9400008BB78068BB
:100080008BBF80E88FBF87B387BB88B388BB0895D9
:100090008BB780688BBF80E88FBF87B387BB88B37F
:1000A00088BB80916000813009F4C09AFFCF1F9215
:1000B0000F920FB60F9211248F939F9381E080933C
:1000C00060008091610090916200019690936200BF
:1000D000809361009F918F910F900FBE0F901F90A2
:0600E0001895F894FFCF13
:00000001FF
