:100000000C942A000C9434000C9434000C943400AA
:100010000C9434000C9434000C9434000C94340090
:100020000C9434000C9434000C9434000C94340080
:100030000C9434000C9434000C9434000C94340070
:100040000C9434000C9434000C9434000C94340060
:100050000C94340011241FBECFE5D8E0DEBFCDBF25
:100060000E944D000C944E000C94000080EA87BB67
:1000700081E58DB908958FB9779BFECF089580E211
:1000800087BB80E48DB90895779BFECF8FB108952B
:100090008BB39FE389278BBB0895FFCFF894FFCFE5
:00000001FF
