:100000000C942A000C9434000C9434000C943400AA
:100010000C9434000C9434000C9434000C94340090
:100020000C9434000C9434000C9434000C94340080
:100030000C9434000C9434000C9434000C94340070
:100040000C9434000C9434000C9434000C94340060
:100050000C94340011241FBECFE5D8E0DEBFCDBF25
:100060000E9436000C945E000C94000081E087BB77
:1000700088BB80E0B4990BC0E3E2F4EF3197F1F76D
:1000800000C00000B49903C08F5FB49BFECF8A30DC
:1000900010F098B318BAC099EDCFB4990BC0E3E251
:1000A000F4EF3197F1F700C00000B49903C081501C
:1000B000B49BFECF98B3917098BBDCCFF894FFCF80
:00000001FF
