:100000000C942A000C9434000C9434000C943400AA
:100010000C9434000C9434000C9434000C94340090
:100020000C9434000C9434000C9434000C94340080
:100030000C9434000C9434000C9434000C94340070
:100040000C9434000C9434000C9434000C94340060
:100050000C94340011241FBECFE5D8E0DEBFCDBF25
:100060000E9436000C9443000C94000080EA87BB89
:100070008FEF8ABB81E58DB987E48FB9779BFECF7F
:0A0080009FB198BBFACFF894FFCFB0
:00000001FF
