:100000000C942A000C9447000C9447000C94470071
:100010000C9447000C9447000C9447000C94470044
:100020000C9447000C9447000C9447000C94470034
:100030000C9447000C9447000C9447000C94470024
:100040000C9447000C9447000C9447000C94470014
:100050000C94470011241FBECFE5D8E0DEBFCDBF12
:1000600010E0A0E6B0E0E0E9F3E002C005900D92F8
:10007000A237B107D9F710E0A2E7B0E001C01D92A6
:10008000A839B107E1F70E94C1010C94C6010C9494
:100090000000DB9A00009BB3807F9F70892B8BBB95
:1000A00088EC8A95F1F7DB9888EC8A95F1F708954A
:1000B0001F93182FDB9A000000000E9449000000E7
:1000C000DB9A812F8295807F0E9449001F910895BD
:1000D0009AB39C6F9ABBDA9A000000000E94580005
:1000E00008959AB39C6F9ABBDA98000000000E94B2
:1000F000580008958AB38C6F8ABB8BB3837F8BBB08
:1001000080E30E9449008FE59AEE0197F1F700C065
:10011000000080E30E9449008FE59AEE0197F1F715
:1001200000C0000080E30E9449008FE59AEE01972D
:10013000F1F700C0000080E20E9449008FE59AEECE
:100140000197F1F700C0000088E20E94710087E883
:1001500093E10197F1F700C0000088E00E94710070
:1001600087E893E10197F1F700C0000081E00E9469
:10017000710087E893E10197F1F700C0000086E085
:100180000E94710087E893E10197F1F700C0000039
:100190008FE00E94710087E893E10197F1F700C0BA
:1001A000000082E00E94710087E893E10197F1F777
:1001B00000C00000089581E00E94710083E00E9469
:1001C00071000895EF92FF92CF93DF93E82EE7013D
:1001D0007E01F92EE70102C00E9468008991882300
:1001E000D9F7DF91CF91FF90EF9008950895613096
:1001F00049F0613028F0623039F0633061F408C0B2
:10020000805803C0805401C08C560E94710008952C
:100210008C520E94710008950F931F93CF93DF9328
:10022000182F062F0E94F700C12FD0E00AC080E2ED
:100230000E94680083EC99E00197F1F700C000008C
:100240002196C431D1059CF3812F602F0E94F700C5
:10025000DF91CF911F910F9108958AB383608ABB7C
:1002600084B38F7384BB0E947A000895DF93CF9389
:1002700000D00F92CDB7DEB783B3807C8A838FE442
:1002800093EC0197F1F700C0000083B3807C898371
:1002900099818A81981709F041C08981803479F069
:1002A0008038C1F0882309F5E0919700F0E0EE0F67
:1002B000FF1FEE0FFF1FEF59FF4F838120C0E0911A
:1002C0009700F0E0EE0FFF1FEE0FFF1FEF59FF4FFB
:1002D000818115C0E0919700F0E0EE0FFF1FEE0F57
:1002E000FF1FEF59FF4F82810AC0E0919700F0E0B5
:1002F000EE0FFF1FEE0FFF1FEF59FF4F80818B8323
:10030000B299FECF8B810E9468008FE19FEBA2E043
:1003100081509040A040E1F700C000000F900F9086
:100320000F90CF91DF91089580E090E052E041E09E
:1003300033E022C08130910559F08230910579F087
:100340000097A1F42BB32C7F2BBB3093970013C0E5
:100350002BB32C7F2BBBD89A509397000CC02BB398
:100360002C7F2BBBD99A4093970005C02BB32360F9
:100370002BBB109297000196B29BDCCF0E943601F6
:1003800008950E942D010E949401FDCFF894FFCFA3
:1003900010313233463435364537383944413042EE
:0203A000430018
:00000001FF
