:100000000C942A000C944F000C943C000C943C007F
:100010000C943C000C943C000C943C000C943C0070
:100020000C943C000C943C000C943C000C943C0060
:100030000C943C000C943C000C943C000C943C0050
:100040000C943C000C943C000C943C000C943C0040
:100050000C943C0011241FBECFE5D8E0DEBFCDBF1D
:1000600010E0A0E6B0E001C01D92A136B107E1F7B3
:100070000E9460000C9463000C940000789481E06E
:1000800087BB88BB8BB780648BBF85B7826085BF19
:10009000089580E58093600088B388BB08951F921F
:1000A0000F920FB60F9211248F93809160008F5F93
:1000B000809360008F910F900FBE0F901F90189546
:0A00C0000E943E00FFCFF894FFCF2E
:00000001FF
