:100000000C942A000C9447000C9447000C94470071
:100010000C9447000C9447000C9447000C94470044
:100020000C9447000C9447000C9447000C94470034
:100030000C9447000C9447000C9447000C94470024
:100040000C9447000C9447000C9447000C94470014
:100050000C94470011241FBECFE5D8E0DEBFCDBF12
:1000600010E0A0E6B0E0E2E0F1E002C005900D9201
:10007000A236B107D9F710E0A2E6B0E001C01D92A8
:10008000A336B107E1F70E9449000C947F000C945D
:100090000000309162008091600090916100482FD3
:1000A000282F2095232320936200282F220F220F30
:1000B000220F209362009C0154E0359527955A95B4
:1000C000E1F720936200282F2F7320936200209184
:1000D0006200282720936200407140936200806F85
:1000E000909361008093600020916200282B209300
:1000F0006200909162009827909362000895F894AE
:02010000FFCF2F
:02010200C90032
:00000001FF
