:100000000C942A000C943F000C943F000C943F0089
:100010000C943F000C943F000C943F000C943F0064
:100020000C943F000C943F000C943F000C943F0054
:100030000C943F000C943F000C943F000C943F0044
:100040000C943F000C943F000C943F000C943F0034
:100050000C943F0011241FBECFE5D8E0DEBFCDBF1A
:1000600010E0A0E6B0E0EEE9F0E002C005900D92ED
:10007000A236B107D9F70E9448000C944D000C94A9
:100080000000BD9A089588B390E2892788BB08953F
:0E0090000E9441000E944300FDCFF894FFCF74
:02009E0005005B
:00000001FF
