:100000000C942A000C943C000C943C000C943C0092
:100010000C943C000C943C000C943C000C943C0070
:100020000C943C000C943C000C943C000C943C0060
:100030000C943C000C9469000C943C000C943C0023
:100040000C943C000C943C000C943C000C943C0040
:100050000C943C0011241FBECFE5D8E0DEBFCDBF1D
:1000600010E0A0E6B0E001C01D92A136B107E1F7B3
:100070000E9455000C9478000C940000B89AC09A25
:10008000789408952AB128692AB920B5266820BD38
:1000900022E02BB9292F332727FD3A9520BD89B9B6
:1000A00008955D9BFECF8CB908950E943E0080E4C8
:1000B00090E00E94420080916000813641F488B354
:1000C00018BA81E60E94510010926000F4CFC09AE5
:1000D000F2CF1F920F920FB60F9211248F938CB113
:1000E000809360008F910F900FBE0F901F90189516
:0400F000F894FFCFB2
:00000001FF
