:100000000C942A000C9472000C9481000C943C0017
:100010000C943C000C943C000C943C000C943C0070
:100020000C943C000C943C000C943C000C9490000C
:100030000C943C000C94B9000C943C000C943C00D3
:100040000C943C000C943C000C943C000C943C0040
:100050000C943C0011241FBECFE5D8E0DEBFCDBF1D
:1000600010E0A0E6B0E001C01D92AD36B107E1F7A7
:100070000E94C7000C9417010C940000B89AC09A13
:1000800083B7836083BF789408952AB128692AB919
:1000900020B5266820BD22E02BB9292F332727FD64
:1000A0003A9520BD89B908955D9BFECF8CB908951E
:1000B000FC0104C05D9BFECF8CB931968081882302
:1000C000C9F7089587B3806B87BB8DB181658DB902
:1000D00088B3806D88BB0895C4988FB9779BFECF95
:1000E000C49A08951F920F920FB60F9211248F9306
:1000F00081E0809362008F910F900FBE0F901F9050
:1001000018951F920F920FB60F9211248F9381E0D2
:10011000809361008F910F900FBE0F901F901895E4
:100120001F920F920FB60F9211242F933F934F936C
:100130005F936F937F938F939F93AF93BF93EF934F
:10014000FF9381E08093610085EF0E946C00C0986E
:10015000FF91EF91BF91AF919F918F917F916F919F
:100160005F914F913F912F910F900FBE0F901F9075
:1001700018951F920F920FB60F9211248F938CB186
:100180008FB98F910F900FBE0F901F9018951F93EE
:10019000DF93CF930F92CDB7DEB70E943E0080E48D
:1001A00090E00E9445000E946200198211E089815E
:1001B000882321F4829B02C010936200839B03C0BA
:1001C00089B7816089BF80916200813031F4898371
:1001D00085E50E946C001092620080916100813080
:1001E00099F410926100E0916300F09164008FB186
:1001F000EB59FF4F808380916300909164000196DA
:1002000090936400809363008091630090916400F8
:10021000089769F689B78E7F89BF198210926400AA
:100220001092630085E690E00E945800C0CFF894D9
:02023000FFCFFE
:00000001FF
